:020000040800F2
:100000000000012061020008650200086702000884
:100010007D0200087F020008950200080000000031
:10002000000000000000000000000000AB0200081B
:10003000AD02000800000000AF020008B102000895
:10004000C5020008C5020008C5020008C502000874
:10005000C5020008C5020008C5020008C502000864
:10006000C5020008CD030008C5020008C50200084B
:10007000C5020008C5020008C5020008C502000844
:10008000C5020008C5020008C50200080000000003
:10009000000000000000000000000000C502000891
:1000A000C5020008C5020008C5020008C502000814
:1000B000C5020008C5020008C5020008C502000804
:1000C000C5020008C5020008C5020008C5020008F4
:1000D000C5020008C5020008C502000800000000B3
:1000E000C5020008C5020008C502000800000000A3
:1000F000000000000000000000000000C502000831
:1001000000000000C5020008C5020008C502000882
:1001100000000000000000000000000000000000DF
:10012000C5020008C5020008C5020008C502000893
:10013000C5020008000000000000000000000000F0
:10014000000000000000000000000000C5020008E0
:10015000C5020008C5020008C5020008C502000863
:10016000C5020008C50200080000000000000000F1
:10017000000000000000000000000000000000007F
:1001800000000000C50200080000000000000000A0
:10019000C502000807B500F0B7F8274B274883428F
:1001A00026D3274A274900208A422CD300F0B8F8EA
:1001B000254D264C01A9684600F09EF8641BA4104A
:1001C0000026B44228DC224D224C641BA4100026D9
:1001D000B44226DCDDE9000100F00AF91E4E1F4C96
:1001E000A41B0546A410002C20DC284600F080F853
:1001F000D3E900129C680C33891A9442CFD9555820
:1002000015600432F9E752F8083B52F8044C9C425E
:10021000CAD943F8040BFAE755F8043B984701366E
:10022000CFE755F8043B98470136D1E7013C56F833
:1002300024309847D7E700BFC8020008E002000852
:10024000E0020008F0020008F0020008F0020008D6
:10025000F0020008F0020008F0020008F0020008B6
:1002600014480047FEE71EF0040F0CBFEFF30880B0
:10027000EFF309807146104A1047FEE7FEE71EF0D3
:10028000040F0CBFEFF30880EFF3098071460B4AAF
:100290001047FEE71EF0040F0CBFEFF30880EFF3EA
:1002A00009807146064A1047FEE7FEE7FEE7FEE7D3
:1002B00070470000950100087B02000893020008C7
:0602C000A9020008FEE7A0
:1002C80004050008000000201400002004050008B0
:1002D8000000001000000010140000201C00002086
:0802E8000000001000000010EE
:1002F00008B500F017F8000001230360014B0B6004
:10030000704700BF0000002008B500F01DF8024B48
:10031000024A9A6008BD00BF00ED00E0000000083E
:1003200000F01AB8BFF34F8F0549064BCA6802F4B4
:10033000E0621343CB60BFF34F8F00BFFDE700BF08
:1003400000ED00E00400FA05024B4FF000629A60F5
:10035000704700BF00ED00E0174A1849936803F0AA
:100360000C03042B0DD0082B0DD0154B0B60124B3A
:10037000144A9B68C3F30313D25C0B68D3400B6031
:100380007047114BF2E75368506813F4800F00F088
:100390003F00536814BF0C4A094AB2FBF0F0064A0A
:1003A0005268C2F30142C3F388130132434352003F
:1003B000B3FBF2F3DAE700BF003802400800002088
:1003C0000024F400F404000800127A00064AD2F86F
:1003D000143C190707D543F00803C2F8143C034A3C
:1003E000136801331360704700300140180000208B
:1003F0003A4AD2F8303843F002032DE9F043C2F80C
:100400003038374B374CD3F80024D3F80C1422F093
:10041000C00242F4A842C3F8002421F0C001324ACD
:10042000C3F80C14D2F8001C41F00801C2F8001CFB
:10043000D2F80C1C41F00801C2F80C1C4FF0E0216E
:100440000025D1F8002142F40072C1F80021274AAA
:100450001068274A012608274FF0E00C4FF0C00E25
:100460004FF0A0082168092907DD256011680131D6
:1004700011601168082988BF1660D3F8101401F0C4
:10048000080138B131B910680130106010680828CF
:1004900088BF16601068013807281CD8DFE800F014
:1004A00004090B0D0F1215182020C3F81404084678
:1004B000D8E74020F9E78020F7E76020F5E7C3F8A8
:1004C0001484F4E7C3F814E4F1E7C3F814C4EEE7C6
:1004D000C3F81454EBE71760E9E700BF00300240AF
:1004E0000000024018000020003001400C000020F5
:1004F00010000020000000000000000001020304C2
:0405000006070809D9
:1005040014000020000000000024F400010000009A
:0405140008000000DB
:040000050800019559
:00000001FF
